:020000040800F2
:10000000A007002059020008056A000851220008D4
:10001000BD690008B91F00086B76000800000000E9
:10002000000000000000000000000000016C00085B
:10003000BD1F000800000000956A0008196D000847
:1000400073020008730200087302000873020008BC
:1000500073020008730200087302000873020008AC
:10006000730200087302000873020008730200089C
:10007000730200087302000873020008730200088C
:10008000730200087302000873020008730200087C
:10009000730200087302000873020008730200086C
:1000A000730200087302000873020008730200085C
:1000B00073020008856D0008216E000873020008B5
:1000C000730200087302000873020008730200083C
:1000D000730200084D7400087302000873020008E0
:1000E000730200087302000873020008730200081C
:1000F000FD70000873020008730200087302000814
:100100007302000873020008396F000873020008C8
:1001100073020008730200087302000873020008EB
:1001200073020008730200087302000873020008DB
:1001300073020008730200087302000873020008CB
:1001400073020008730200087302000873020008BB
:1001500073020008730200087302000873020008AB
:10016000730200087302000873020008730200089B
:10017000730200087302000873020008730200088B
:10018000730200087302000800F002F800F055F84E
:100190000AA090E8000C82448344AAF10107DA45E2
:1001A00001D100F04AF8AFF2090EBAE80F0013F0DF
:1001B000010F18BFFB1A43F00103184748A80000BD
:1001C00068A80000103A24BF78C878C1FAD852074E
:1001D00024BF30C830C144BF04680C6070470000C1
:1001E0000023002400250026103A28BF78C1FBD840
:1001F000520728BF30C148BF0B607047662908F01E
:100200001E87642900F05680782900F08F80002036
:1002100070471FB508F006FF00F012FC0400002034
:10022000002108F079F9401C60600020002108F0EE
:100230005DF9E0601FBD10B510BD00F049FD11462D
:10024000FFF7E7FF07F042FC00F0ECFF03B4FFF715
:10025000F2FF03BC07F05EFB0948804709480047EE
:10026000FEE7FEE7FEE7FEE7FEE7FEE7FEE7FEE766
:10027000FEE7FEE704480549054A064B70470000C3
:100280001D6D000889010008A0010020A0070020C2
:10029000A0030020A0030020704700000FB4044911
:1002A00010B503AA029800F067FB10BC5DF814FBC0
:1002B0004C0000202DE9F041064600241068752905
:1002C000314616A510D0AFF30080002802DA404274
:1002D00013A507E031688A0701D512A502E0490796
:1002E00004D511A5012401E0AFF3008000210A220A
:1002F00006F1240709E0B0FBF2FCB0FBF2F302FBCD
:100300001C00303078541846491C0028F3D123468D
:100310002A463046BDE8F04100F0C6B800000000B3
:100320002D0000002B0000002000000070B50446E6
:100330000D4621461068AFF300802188090502D5DB
:100340000F4A7A4402E00E4A7A440E32002104F148
:10035000240305E000F00F060009965D5E54491C79
:100360000028F7D120780023000704D5702D02D093
:1003700009B1022311322046BDE8704000F094B864
:10038000B8A500002DE9F0410F460546002028627F
:100390002846E968884770B3252805D0D5E90121AA
:1003A0009047286A401CF2E7E968284600268847FB
:1003B0006C2804460AD0682C08D04C2C35D06A2C06
:1003C00031D0742C31D07A2C2FD016E0E968064653
:1003D00028468847B042044608D16C2E23D04FF4FB
:1003E00080662846E9688847044606E06C2E03D0FC
:1003F0004FF4807601E01EE04026E4B1A4F1410014
:10040000192802D8203446F400663A462146284688
:100410002E60FFF7F3FE60B1012808D0FF1D27F022
:1004200007070837B4E78026DBE70026D9E73F1D3A
:10043000AEE72046B2E7286ABDE8F0814FF000023F
:1004400000B5134694469646203922BFA0E80C50CA
:10045000A0E80C50B1F12001BFF4F7AF090728BFA5
:10046000A0E80C5048BF0CC05DF804EB890028BF21
:1004700040F8042B08BF704748BF20F8022B11F04A
:10048000804F18BF00F8012B7047704770477047C6
:10049000704710B500F0D8FA006810BD10B50446DA
:1004A00000F0D2FA046010BD2DE9F0470D469946E0
:1004B0009246044600F124080168880604D5E069E4
:1004C00021F01001216000E00120A84201DD471B5E
:1004D00000E00027A1697A1902EB0900081AA0615F
:1004E0002078C00602D42046AFF30080002608E042
:1004F000D4E901211AF806009047206A401C761CB6
:1005000020624E45F4DB2078C0060AD52046AFF3C2
:10051000008006E0D4E9012130209047206A401C89
:100520002062381EA7F10107F4DC07E0D4E90121BD
:1005300018F805009047206A401C2062281EA5F18B
:100540000105F3DC2046AFF300802078000602D5D9
:100550000220BDE8F0870120FBE770472DE9FF4F3F
:100560000C461E464FF0FF378BB0D2E90001DDF894
:1005700060800A908A46C1F30A5505B93D460021BC
:1005800008464FF00000BAF1000F00F4400005DA11
:1005900000EB80004FF4400101EA50004FEA90590F
:1005A000B9F1010F00DDB9460A9850EA4A000ED0B1
:1005B00044F61050A5F2FF3545432F14B8F1000F53
:1005C0001ED07542291E1EDDC9F100021CE0B8F1E3
:1005D000010F4FF0000001D0302103E0F24305E0AD
:1005E0002154401CB042FBDB304600220021215444
:1005F0000B99C1F80880C1E900200FB0BDE8F08F69
:10060000BD1B6D1CDEE74A4600DA694206A800F011
:10061000E5FA06AB93E8070003AB83E80700504612
:100620000A9901F094F88DE80700A0F500501F38F2
:1006300000900398002D0ADD42F21F014A4608444B
:10064000002303A90390684601F040FB09E0A0F5F0
:1006500000504A461F38002303A90390684601F062
:100660005FFB8DE807000004000C03D04FF0FF3063
:10067000410800E01046B8F1000F03D000220092BC
:1006800015461EE0751E05D400F0E2F930326255C1
:100690006D1EF9D5B3460122084302D000227F1C0B
:1006A00004E02078302801D100227F1E002A09971B
:1006B00084D01DE0112D07DA00F0CAF930326255FE
:1006C0006D1C50EA0102F5D1084302D00098C8B170
:1006D0000EE00021681E05E0235C625C6354225436
:1006E000401E491C8142F7DBAB46A81B401E099007
:1006F000002004F80B000B98099AC0F80880C0E9A4
:10070000002B7AE711264FF0000857E72DE9F04F4C
:1007100088460446D21D22F0070191B0D1E90001BC
:10072000CDE90A0106F0A3FF02460B98C00F01D0E5
:100730002D2007E02068810701D52B2002E0202131
:1007400001EAC000032A099001D0072A05DB03460D
:100750004146204600F0E2F90BE12078800601D501
:10076000E06900E00620B8F1650F814606D0B8F1D7
:10077000660F18D0B8F1670F70D131E00020B9F1E1
:10078000110F009001DB112301E009F101030AAA16
:1007900001A90CA8FFF7E2FEDDE90C70002609F1C3
:1007A0000105834647E001204B4600904FF000478B
:1007B0000AAA01A90CA8FFF7D1FEDDE90DB00C993A
:1007C0005D46002610B909F101000D18B9EB0500CE
:1007D00003D4C0F1FF3609F10105A5EB09002BE0B8
:1007E000B9F1010F01DA4FF001090020B9F1110F41
:1007F0000090484601DD112300E003460AAA01A942
:100800000CA8FFF7ABFEDDE90C704D4600268346D1
:10081000207800070AD4AB4500DA5D4601A8012D17
:1008200004DD411911F8011C302907D04F4502DAC7
:1008300017F1040F04DA012082460FE06D1EEEE787
:10084000002F02DCED1B3E4403E0781CA84200DDD3
:100850007D1CB81B00F1010A4FF00047207800070B
:1008600003D4AA4501DB4FF0FF3A0021B7F1004F56
:100870000DF143088DF8431024D002202B23002FC4
:1008800001DA7F422D230A21021EA0F1010000DCC3
:100890005FB197FBF1FC97FBF1F201FB1C7C174663
:1008A0000CF1300C08F801CDEEE7A8F1010003705F
:1008B0002188090501D5452100E06521A0F1010845
:1008C00000F8011C09980FA9A1EB0807FF1D00B152
:1008D0000120411901EBEA70A1693844081A401E51
:1008E000A0612078C00602D42046AFF300800998AA
:1008F00028B1D4E901219047206A401C2062207869
:10090000C00622D52046AFF300801EE0002E04DB97
:10091000B34502DD01A8805D00E03020D4E901216B
:100920009047206A401C2062761CAAF101005FEA11
:10093000000A0AD100F084F8C0680168405CD4E97C
:1009400001219047206A401C2062281EA5F1010564
:10095000DCDC07E0D4E9012118F8010B9047206A9C
:10096000401C2062381EA7F10107F3DC2046AFF3DC
:100970000080032011B041E6074B70B50D467B4463
:1009800000F0B9F80446284600F09AF910B14FF08B
:10099000FF3070BD204670BDA37000000FB400236F
:1009A00000B589B00CA900910B99CB60214B7B4419
:1009B0000693214B7B44079304236FF00042CDE95B
:1009C00001321E4A7A446B4608920246002008F023
:1009D00098FB09B05DF814FB70B506464FF0FF3088
:1009E00015460C46324686B00091CDE901016946B4
:1009F0000020049004A8FFF7D1FF024604982118B4
:100A000025B108B1084600E0204628600498002877
:100A10000DD0002A02DD0098884208D03246081B1B
:100A200069460094CDE9010404A8FFF7B7FF06B0BA
:100A300070BD0000EB010000030200001301000084
:100A4000004870475C010020004870473C010020CE
:100A500030B5B0F10A024FEA900E71F100034EEA90
:100A6000817EB0EB0E0061EB91014FEA101E4EEA61
:100A7000017E10EB0E0041EB11114FEA102E4EEAF1
:100A8000016E10EB0E0041EB11214FEA104E4EEAC1
:100A9000014E10EB0E0041EB1141401841F10001F5
:100AA0004FEAD00040EA41704FEAD10110EB8005D7
:100AB0004FEA810444EA907444EB01046D1944EB5D
:100AC0000404521BA3414FF0000348BF0A3200D573
:100AD00030BD401C41F1000130BD10B5044600F0AE
:100AE0001DF90068005D00F0010010BD01694A1C9D
:100AF00002610878704700B58FB0CDE9013100215F
:100B0000059105497944CDE9031011466846FFF780
:100B100039FC0FB000BD0000E5FFFFFF2DE9F041FB
:100B20001F46044603260168072A01F4006004DB1F
:100B300008B116A505E016A503E008B115A500E06B
:100B400015A521F010002060A069C01EA0610FB1A2
:100B5000401EA0612046AFF300804FB1D4E90121CF
:100B600038469047206A401C2062C01C206206E084
:100B7000206AFAE7D4E9012115F8010B9047761EA7
:100B8000F8D22046AFF30080BDE8F0814E414E0020
:100B90006E616E00494E4600696E6600426842B161
:100BA000016811F8013B23B1521EC0E9001218463A
:100BB00070470121C160881E704742685AB1C368FE
:100BC000016843B983688B4205D0491E521CC0E9B5
:100BD0000012002070474FF0FF3070472DE9F047BA
:100BE000814616468AB0354878440DC88DE80D0018
:100BF00032487844801C03AC0DC884E80D0041F6EF
:100C00009B300844372190FBF1F290FBF1F5A5F100
:100C1000800501FB12041B3C02D56442012000E068
:100C20000020DFF898A080460027FA44AAF1BE0A07
:100C30000EE0E0070AD03246684607EB4701012381
:100C40000AEB810101F06CF88DE8070064107F1C4D
:100C5000002CEED1194F7F44AE3F19E0E80715D0C4
:100C600007EB04100DF1180A90E80E008AE80E0058
:100C7000C068F04201D1981908903246012306A9B4
:100C800003A801F04DF803AB83E807006D10641C66
:100C9000002DE3D14FF0010332466946B8F1000F51
:100CA00003A802D001F012F801E001F039F8C9E917
:100CB0000001C9F808200AB0BDE8F087B89D00001F
:100CC000007B00F080007047004870473C01002026
:100CD0007546FFF7F9FFAE4605006946534620F01A
:100CE0000700854618B020B5FFF7C4FABDE82040DC
:100CF0004FF000064FF000074FF000084FF0000BD8
:100D000021F00701AC46ACE8C009ACE8C009ACE88A
:100D1000C009ACE8C0098D467047000010B5FFF768
:100D20008FFE001D10BD00BFF17700002DE9FF4FC1
:100D300006468BB00878FF2806D0491C2D2805D020
:100D400000244FF0000908E000200CE00124F8E73F
:100D500009EB8903491C00EB43090878FF28F7D108
:100D600014B1C9F100008146107800252C46AA462E
:100D700029462D2801D02B2804D1521C2D2813D010
:100D8000002082468B461078FF280FD04FF0000CD1
:100D90000A21521CA5FB017804FB018105FB0C1103
:100DA000C5194BEB0104EEE70120EAE700210846F4
:100DB0004FF00000BAF1000F02D000EB80004008B5
:100DC000C0F38157012F01DD4FF0FF370E9955EA2F
:100DD000040009EB01080BD04FF0020918F5FA7F67
:100DE00016DA4FEACA70002F706008DD012007E0B4
:100DF0004FEACA70C6E900B00FB0BDE8F08F00201E
:100E00003060FFF721FEC0F800901821084616E078
:100E1000B8F5FA7F18DD002F02DAF748784401E0D0
:100E2000F6487844D0E90010C6E9001040EACA70DC
:100E30007060FFF709FEC0F80090142108460FB05B
:100E4000BDE8F04F08F0F8B8002108464FF0000068
:100E5000B8F10001099002DAC7F1000200E03A4659
:100E600001DAC8F1000106A8FFF7B8FE06AB93E867
:100E7000070003AB83E8070044F23E005BEA04018D
:100E80000090584604D144F21E012C465D46009164
:100E9000210C0904014306D10099240444EA1544B5
:100EA0002D041039009104F07F41014306D10099CF
:100EB000240244EA15642D020839009104F07041BF
:100EC000014306D10099240144EA15742D01091F3C
:100ED000009104F04041014306D10099A40044EA86
:100EE0009574AD00891E009104F00041084304D1BF
:100EF00000986D196441401E00904FF001033A467E
:100F00006846B8F1000FCDE9014503A902DD00F004
:100F10001CFF01E000F0EFFEBAF1000F04460D46A1
:100F200001D084F00044002108464FF000000999E8
:100F300040F2FF77484010F00C0F07D124F000403A
:100F4000284303D0C4F30A50B84212D1FFF77CFD06
:100F5000C0F80090C4F30A50B8420AD1A8487844B7
:100F6000D0E90010C6E9001004F0004108437060A9
:100F700042E7C6E900543FE72DE9FF4F1F464FF017
:100F8000000A4FF0FF38454691B0D7E90146CDF849
:100F90003CA0FFF755FDC0680168405C1090B9693E
:100FA00012986D1C8847396A814688470028F6D117
:100FB000B9F1FF3F0AD0002E24F4D06411DDB9F15D
:100FC0002B0F08D0B9F12D0F0BD102E0404615B020
:100FD00013E744F48064B96912986D1C8847761E43
:100FE0008146600504A901D52D2000E02B20002EAC
:100FF00001F1010B0DF130088DF810003FDDB9F162
:10100000690F08D0B9F1490F05D0B9F16E0F02D0C0
:10101000B9F14E0F1CD13B4601A8009580E8500263
:10102000DDE912126FF0020008F06FF8C11CCED19A
:101030000EE0B96912986D1C884781461398761E98
:1010400044F4007405600F98401C002E0F9016DDCC
:10105000B9F1300FEDD0B9F1780F02D0B9F1580FD6
:101060000DD10F9801280AD13B46CDE90054DDE9A6
:101070001212001F029608F046F8C11CA7D1109961
:1010800089453ED144F0800406E01399681CAAF11A
:10109000010A44F400740860B9696D1C1298761E48
:1010A000884730288146F0D02BE01099894505D13A
:1010B000200603D4761E44F0800418E0484606F06B
:1010C00022FC08B3761E0DF123018B4544F4007415
:1010D00008D2A9F130000BF8010B200607D5AAF1C0
:1010E000010003E0200602D40AF101008246A005B7
:1010F00002D51399681C0860B96912986D1C88475D
:101100008146002ED1DC53E0002E51DDB9F1650F90
:1011100002D0B9F1450F4BD1A00549D5B9696D1C75
:101120001298761E24F440748847002E81460CDD08
:101130002B2804D0B9F12D0F07D144F48074B9697C
:1011400012986D1C8847761E8146E00501D52D2139
:1011500000E02B2108F8011BCDF8008021E0761E6D
:101160000DF13901884544F400740CD2A9F1300026
:1011700010F0FF0088F8000002D10099884509D9D5
:1011800008F1010806E0E00501D51E4801E042F241
:101190000F708246B96912986D1C88478146139872
:1011A0000560002E04DD484606F0ADFB0028D6D1D0
:1011B000F96912988847FF2053468BF8000088F899
:1011C000000000200A900B9004AA0CA90AA8FFF7BF
:1011D000ADFDA00502D46FF00100F8E614F0240F75
:1011E00012D0E0071CD13868DDE90A12031D3B600C
:1011F0000068C0E9001213E00C9C0000FE9B000098
:10120000C29A0000F1D8FFFF0AA9684606F068FB01
:10121000E00705D13868009A011D39600068026056
:101220002846D4E610B50446AFF300802046BDE85A
:101230001040FFF70BB800004FF0013C50F8042BB2
:1012400051F8043B9A4221D1A2EB0C03934313EAD9
:10125000CC1317D150F8042B51F8043B9A4215D106
:10126000A2EB0C03934313EACC130BD150F8042BDD
:1012700051F8043B9A4209D1A2EB0C03934313EAC1
:10128000CC13DBD04FF00000704700BFD01A01BA7A
:10129000B1FA81F101F0180122FA01F0CB40C1F15D
:1012A0002001DBB2C0B2C01A2CFA01F3D11A91436B
:1012B00011EAC311E6D170472DE9FF4F1F464FF0E9
:1012C0003C0987B04FF00042DDE9141001F101083C
:1012D000DDF858A002EA40500390002005908346B4
:1012E000054604460490B969461E08988847AAF145
:1012F000010A0290BAF1000F3BDD02982E2815D0AA
:10130000102100F016FA00282EDB4FF0010B059992
:10131000014317D0B9F1000F0BDB4A46C11700F0AB
:10132000F5F905430C43A9F1040905E001200490F7
:101330000BE008B145F0010501200590049820B9A3
:10134000361D02E0049800B1361FB969089808F10B
:1013500001088847BBF1000FAAF1010A0290C9D029
:101360000999C1F80080C5E70298702808D0502874
:1013700006D0F96908988847BBF1000F14D04FE0F8
:10138000002002900120BBF1000F049009D0B96940
:10139000089808F101088847AAF10109B9F1000F7E
:1013A00007DCF969089888476FF001000BB0BDE8C9
:1013B000F08F2B2804D02D280CD14FF0FF30049053
:1013C000B969089808F101088847A9F10109B9F13C
:1013D000000FE6DD411CE4D00A2100F0AAF9002844
:1013E000DFDB029908F1010801EB810100EB41000C
:1013F0000290B969089888470A2100F09AF9099A79
:10140000A9F10109B9F1000FC2F8008001DD00283F
:10141000E7DAF969089888470499029800FB0166A1
:1014200055EA040004D004F04041090002D006E06F
:10143000039898E0A40044EA9574AD00B61E04F049
:101440000041080002D16D196441761E159810F014
:10145000240F03D04FF00B095C4803E04FF028093C
:101460006FF07D008246564507DAAAEB06018944F3
:10147000B9F1410F01DD4FF0410901200021A9F12F
:10148000010200F043F9024628400B462140084380
:1014900001D0012100E00021501E029143F1FF31F3
:1014A00028402140084301D0012000E0002002999B
:1014B000834651EA0B014FD0002108464FF000004F
:1014C000039900F4400039B100EB80004FF4400173
:1014D00000EBD07001EA60008015012802DD4FF0BA
:1014E000FF3000E013D0401C36D0029860B3BBF14F
:1014F000000F0CD14A460120002100F007F92840D6
:101500002140084301D0012000E00020E0B101208B
:101510004A46002100F0FAF8034640190A466141A4
:101520002D1A8C4111D3B9F1400F09DD159810F037
:10153000240F02D0AAF1340603E0AAF1170600E056
:10154000761C00254FF0004406E05B1E42F1FF329E
:1015500020EA030521EA0204CAF10100B04206DADA
:101560001B49039808430190002000900EE0039A65
:10157000C4F3D321E80A0A43164940EA44500A4317
:101580003146CDE90002684606F0B3F9159810F02F
:10159000240F0BD01598C00715D13868DDE900126B
:1015A000031D3B600068C0E900120CE002A8694618
:1015B00006F096F91598C00705D13868029A011D02
:1015C0003960006802604046F0E6000002FCFFFF60
:1015D0000000F07F0000F03F2DE9FF4F92461D46CE
:1015E00085B04FF00041DDE9124BDDE914727F1E3A
:1015F00001EA4B50414940F0FF4940EA010800210F
:1016000022F020004928049102D04E2828D04CE036
:101610003BA0012607C88DE80700A9690698641C4D
:1016200088477F1E014606D41DF8060018B121F038
:10163000200181420BD0E96906988847032E34D0F7
:10164000082E32D06FF0010009B0BDE8F08F761C93
:10165000032E01D0082EE0D1601CCAF80000DCE7A0
:10166000A9690698641C88477F1E2AD420F02000B0
:10167000412826D1A9690698641C88477F1E20D47A
:1016800020F020004E281CD1A9690698641C8847C8
:101690007F1E48F4002849F48009CAF8004001D4AC
:1016A000282806D0E969069888475FEACB7012D0EF
:1016B00022E0A9690698641C88477F1E01D400288F
:1016C00003DAE96906988847BCE72928F1D1641C48
:1016D000CAF80040E9E71BF0240F07D028680499F6
:1016E000031D2B600068C0E9001805E02868021D92
:1016F0002A600068C0F800902046A5E70000F07F4F
:10170000494E46494E49545900000000B2F12003A9
:101710000AD5C2F1200301FA02F120FA03F300FA1C
:1017200002F041EA0301704700FA03F14FF00000B4
:1017300070473A2800D2303820F02002412A01D3E5
:10174000A2F13700884201D34FF0FF3070475FEAC3
:10175000400C08BF91F0000F4FEA8C234FEAC122E2
:1017600043EA51514FEA1C5018BF00F5F0404FEAD0
:10177000300018BF41F000415FEA6C5C00F0298046
:10178000BCF1FF3F08BF40F080407047130C06BF1C
:1017900012044FF0100C4FF0000C130E04BF120295
:1017A0000CF1080C130F04BF12010CF1040C930F81
:1017B00004BF92000CF1020CD30F04BF52000CF1D5
:1017C000010C11464FF00002A0F11F00A0EB0C002D
:1017D000704711F0004F08BF704731F000413FF4EF
:1017E000D5AF0B0C06BF09044FF0100C4FF0000CE6
:1017F0000B0E04BF09020CF1080C0B0F04BF09010A
:101800000CF1040C8B0F04BF89000CF1020CCB0F00
:1018100004BF49000CF1010CCCF12003A0EB0C003B
:1018200022FA03F302FA0CF241EA030100F101008B
:10183000704720F07F4C80EA030023F07F47ACEB39
:10184000070303F57C5300F0004003F1FF032DE98B
:1018500080494FEA154B09B44FEA144325EA0B4E71
:1018600024EA03480FF2042606EB132749083E78C2
:101870005FEA320203FB0667C7F5000707FB06F6BF
:101880004FEA54374FEAD64606F1020607FB066CCC
:10189000CCF1005C4FEA1C472CEA074C07FB06F42E
:1018A0000CFB06F504EB15464FEA961634BF0020F4
:1018B0004FF000404FEAD13706FB07FC4FEA1C4CC3
:1018C0000CFB0BF7D21B03FB0CF761EB07010CFBC6
:1018D0000EF7B0EB074072EB17420CFB08F734BF72
:1018E000A2EB0742B2EB074261EB17414FEA0C440F
:1018F0004FEA910706FB07FC4FEA1C4C0CFB0BF769
:10190000B0EBC74072EB573203FB0CF734BFA2EBCE
:10191000C742B2EBC74261EB57310CFB0EF7B0EB9D
:10192000C70072EB57720CFB08F734BFA2EBC7027B
:10193000B2EBC70261EB5771039F4FEA816141EA45
:10194000921104EBCC044FEAD1374FEA826206FBD6
:1019500007FC42EA90124FEA80604FEA1C4C0CFBF5
:101960000BF7D21B03FB0CF761EB07010CFB0EF727
:10197000B0EB074072EB17420CFB08F734BFA2EB49
:101980000742B2EB074261EB17414FEA8C554FEA31
:10199000910704EB9C2406FB07FC4FEA1C4C0CFB54
:1019A0000BF7B0EBC74072EB573203FB0CF734BFB9
:1019B000A2EBC742B2EBC74261EB57310CFB0EF70B
:1019C000B0EBC70072EB57720CFB08F734BFA2EB09
:1019D000C702B2EBC70261EB577115EB4C254FEA1A
:1019E000816141EA92114FEA82624FEAD13742EABD
:1019F000901206FB07FC44F100044FEA80604FEAB6
:101A00001C4C0CFB0BF7D21B03FB0CF761EB070123
:101A10000CFB0EF7B0EB074072EB17420CFB08F71C
:101A200034BFA2EB0742B2EB074261EB174115EB63
:101A30001C154FEA813141EA92414FEA823242EA73
:101A400090424FEA80304FEA0C7644F1000448EAB5
:101A500003434EEA0B484FF0000EB2EB080C71EB5B
:101A6000030724BF624639464EEB0E0E4FF0000BC3
:101A70000018524149414BEB0B0BB2EB080C71EBD8
:101A800003077BF1000B24BF624639464EEB0E0E76
:101A90004FF0000B0018524149414BEB0B0BB2EBDE
:101AA000080C71EB03077BF1000B24BF624639463B
:101AB0004EEB0E0E51EA020718BF46F0010616EB78
:101AC0000E7655F1000254F1000103D5BDE88901FD
:101AD000BDE80088BDE88901BDE80048B61952415B
:101AE00041EB0101A3F10103704780807F7E7D7C83
:101AF0007B7A7978777676757473727171706F6EA0
:101B00006E6D6C6C6B6A6A6968686766666564644A
:101B1000636362616160605F5F5E5E5D5D5C5C5BD4
:101B20005B5A5A5959585857575656555555545443
:101B3000535352525251515050504F4F4F4E4E4DA1
:101B40004D4D4C4C4C4B4B4B4A4A4A4949494848ED
:101B5000484747474746464645454544444444432D
:101B600043434342424242414141000046EA064665
:101B7000A3F570534FEA164646EA42564FEAD22280
:101B800042EA415210B54FEAD121A3F1010300F01E
:101B90002FF820F0004000F1020C00F0004701EBAC
:101BA00000501146BCF5006F40EA070000D210BD9E
:101BB000BAF1000F0AD01CB503B44FF004004FF087
:101BC00004014FF000000FBCBDE810404FF00001D1
:101BD000BBF1010FB9BF04484FF0FF3103480021AA
:101BE00040EA070010BD00BFFFFFEF7F0000F07F5D
:101BF000002B9C4630D477002BD01CB54FEA37071A
:101C000003B44FF010004FF01001BAF1000F06D0EE
:101C1000BCF1000FDCBF40F0080040F008014FF0BD
:101C200000000FBCBDE810400BF1010BBBF1010F30
:101C300008BF5FEA170722BF12F1010211F101018B
:101C40004FF0004143F1000300F0004043EA000080
:101C50007047F9D35708D0E746EA064613F1400F1C
:101C60004FEA16461FDD13F1200FDFBF16430A4669
:101C7000002120335B42BED0C3F1200746EA06466E
:101C800002FA07F74FEA164646EA0706C3F12007AD
:101C900022FA03F201FA07F721FA03F14FF00003E9
:101CA00042EA0702A7E746EA020646EA06464FEA84
:101CB000164646EA0106BCBF46EA0646360C4FF019
:101CC00000034FF000024FF0000194E72DE9804C33
:101CD0009A46934670B491E8380007C831EA400C40
:101CE00048BF34EA430C03D5FFF7A3FDFFF780FF9D
:101CF000F0BCBDE8008C2DE9804C9A46934670B448
:101D000091E8380007C831EA400C48BF34EA430C78
:101D100003D5FFF78EFDFFF729FFF0BCBDE8008C6F
:101D20002DE9804C9A46934670B491E8380007C874
:101D300010F0804F08BF13F0804F03D100F01AF865
:101D4000FFF756FFF0BCBDE8008C2DE9804C9A46A9
:101D5000934670B491E8380007C810F0804F08BF70
:101D600013F0804F03D100F005F8FFF7FFFEF0BC41
:101D7000BDE8008C20F07F4780EA030023F07F4C11
:101D800007EB0C03A3F57C5300F00040A3F1FE0326
:101D900092F0000F00F0B38095F0000F00F0778014
:101DA0002DE901494FEA11404FEA144621EA004863
:101DB00000FB06FC24EA064708FB06F607FB08F8CA
:101DC00000FB07F718EB06484CEB164C4FEA124B9A
:101DD00018EB07484FEA15464CEB174022EA0B4E2A
:101DE0000BFB06FC25EA06470EFB06F607FB0EFE7C
:101DF0000BFB07F71EEB064E4CEB164C4FF00006A4
:101E00001EEB074E4CEB174B18EB0B0840F1000094
:101E100018EB0E0B58EB000840F100008F1A4FF042
:101E200000013CBFC943661B14BFB5EB040C002185
:101E30003CBFC943F61B4FEA17444EEA8E0E27EA11
:101E400004454FEA1C4704FB07622CEA074C05FBDC
:101E500007F70CFB05F604FB0CFC16EB074642EB00
:101E6000174216EB0C4642EB1C421BEB060658EBE6
:101E70000202414146EA9E0601D5BDE80189B61934
:101E8000524141EB0101A3F10103BDE801894FEA91
:101E900014454FEA114724EA054621EA074C05FBA1
:101EA00007F406FB07F70CFB06F105FB0CFC11EB36
:101EB000074144EB17444FEA124711EB0C4144EB46
:101EC0001C4422EA074C05FB07F206FB07F70CFB54
:101ED00006F605FB0CFC16EB074642EB174216EB29
:101EE0000C4642EB1C456A1854F1000148BF70478C
:101EF000B619524141EB0101A3F10103704795F07E
:101F0000000F37D04FEA11424FEA144721EA024648
:101F100024EA074C02FB07F106FB07F70CFB06F46B
:101F200002FB0CFC14EB074441EB17414FEA154749
:101F300014EB0C4441EB1C4125EA074C02FB07F56E
:101F400006FB07F70CFB06F602FB0CFC16EB07463C
:101F500045EB174516EB0C4645EB1C42121951F1A7
:101F6000000148BF7047B619524141EB0101A3F18E
:101F7000010370474FEA14454FEA114724EA05462A
:101F800021EA074C05FB07F106FB07F70CFB06F2FD
:101F90004FF0000605FB0CFC12EB074241EB17412A
:101FA00012EB0C4251EB1C4148BF7047921841EBB9
:101FB0000101A3F10103704700BFFEE77047000075
:101FC0001CB50121102004F067FD60200090012065
:101FD0008DF8040000208DF8060003208DF8050020
:101FE00001208DF807006946054800F098F8202187
:101FF000034800F00AF94021014800F004F91CBD33
:102000000010024051B18200A2F1C042126842F0B9
:1020100001038200A2F1C042136009E08200A2F134
:10202000C0421268034B1A408300A3F1C0431A60F8
:1020300070470000FEFF0F00D0E901121143C26893
:102040001143026911434269114382691143C26914
:102050001143026A1143426A1143826A1143C26A00
:102060001143026B114302689200A2F1C042116059
:10207000816808290BD101688900A1F1C041096874
:1020800041F0400201688900A1F1C0410A60416B42
:102090000968426B526841EA0211426B926841EA58
:1020A0000221426B928941EA0241426B128A41EA63
:1020B0000251426B127D41EA0261426B9269114307
:1020C0000268521C9200A2F1C0421160C16AB1F5CF
:1020D000804F1BD1816B0968826B526841EA021103
:1020E000826B926841EA0221826B128A41EA0251B4
:1020F000826B127D41EA0261826B92691143026830
:102100009200A2F1C042C2F8041107E06FF07042E1
:1021100001688900A1F1C041C1F804217047F0B500
:102120000A4600210023002400BF3DE0012505FAF6
:1021300001F3156805EA03049C4234D105684F0099
:102140000326BE40B543056015794E00B5400668CC
:10215000354305601579012D02D01579022D16D170
:1021600085684F000326BE40B543856055794E0013
:10217000B540866835438560456801268E40B54385
:102180004560456896798E40B6B235434560C5686E
:102190004F000326BE40B543C560D5794E00B5401B
:1021A000C6683543C560491C1029BFD3F0BDF0B5E2
:1021B000002300244D07ED0E02FA05F3CE1000F1C6
:1021C000200555F826504E07F70E0F26BE40B543A2
:1021D000CF1000F1200646F82750CE1000F1200560
:1021E00055F8265045EA0304CE1000F1200545F8C5
:1021F0002640F0BD0246002013690B400BB10120C0
:1022000000E0002070474183704701837047000061
:102210001CB50121084604F05FFC3020009000202E
:102220008DF8040003208DF8050002208DF80700CA
:1022300069460648FFF773FF10210448FFF7E3FFE4
:1022400020210248FFF7DFFF1CBD00000000024014
:1022500000BFFEE71CB50121112004F01DFC1C206D
:10226000009000208DF8040003208DF80500012067
:102270008DF8070069460648FFF751FF01200090DE
:1022800002208DF8070069460248FFF748FF1CBD91
:10229000001002400000024010B5044614B10120B5
:1022A0002C4908702B480078002837D010212A4884
:1022B000FFF7A0FF78B108212748FFF79BFF50B137
:1022C00004212548FFF796FF28B101212348FFF795
:1022D00091FF012822D10A2005F03CFB00201D4976
:1022E000087010211C48FFF785FF08B9012010BDB8
:1022F00008211948FFF77EFF08B90220F7E70421FB
:102300001548FFF777FF08B90320F0E701211348CC
:10231000FFF770FF01281BD10420E8E710210E48C9
:10232000FFF768FF012813D108210B48FFF762FF70
:1023300001280DD104210848FFF75CFF012807D1CF
:1023400001210648FFF756FF10B901200149087026
:102350000020CCE7240000200010024000000240D2
:1023600070B504460026174805884088454315483F
:10237000808846F60401884216D1124880790128E7
:1023800012D100200F4988712A2048812B20888192
:102390000021084604F03AF801200A4988712B20F0
:1023A00048812A20888103E00021084604F02EF8A5
:1023B00004F03EFA002602E003480480761CAE4298
:1023C000FAD370BD640000208000006C10B5044694
:1023D000002C66D16C498871F02008804FF4A07001
:1023E00048800846808849F2413188420BD06648CF
:1023F000808846F60401884205D06348808845F20B
:10240000103188421AD12C205F4908812A20488146
:102410002B2088810846808846F60401884205D032
:102420005948808845F21031884206D14FF4A07097
:10243000554908804FF4F0704880A1E052488088E8
:1024400045F21051884210D14FF430504E49088166
:102450004FF4285048814FF42C5088814FF4F0708D
:1024600008804FF4487048808AE04748808841F6E9
:10247000631188420DD12C20434908812B204881CB
:102480002A2088814FF4F07008804FF4487048800B
:1024900076E022203C490881202048812120888143
:1024A0006EE00120384988714FF4A0700880F02058
:1024B00048800846808849F24131884205D0324838
:1024C000808845F21031884207D12C202E4908819E
:1024D0002A2048812B2088813FE02B48808846F6BF
:1024E0000401884207D12C20274908812B204881EC
:1024F0002A20888131E02448808845F210518842A2
:1025000010D14FF43050204908814FF428504881B1
:102510004FF42C5088814FF4487008804FF4F070CD
:1025200048801AE01848808841F6631188420DD12E
:102530002C20154908812A2048812B2088814FF4BE
:10254000487008804FF4F070488006E022200E4961
:10255000088121204881202088810B48808846F608
:102560000401884205D00848808845F2103188422D
:1025700006D14FF4F070044908804FF4A0704880F1
:10258000002003F0CDFD10BD6400002070B50446AE
:102590000D4616465B48808849F24131884205D095
:1025A0005848808845F21031884214D155494889ED
:1025B00004F032F9201204F023F9E0B204F020F91B
:1025C0005049888904F028F9281204F019F9E8B272
:1025D00004F016F98CE04B48808845F2105188428F
:1025E00020D14849488904F017F9201204F008F96D
:1025F00044494989491C88B204F00EF9E0B204F05C
:10260000FFF84049888904F007F9281204F0F8F827
:102610003C498989491C88B204F0FEF8E8B204F00C
:10262000EFF865E03748808841F66311884228D189
:102630003448807920B933480088401E001B84B29A
:102640003049488904F0E8F8201204F0D9F8E0B2E3
:1026500004F0D6F8201204F0D3F8E0B204F0D0F879
:102660002849888904F0D8F8281204F0C9F8E8B29B
:1026700004F0C6F8281204F0C3F8E8B204F0C0F879
:1026800036E02048808846F6040188421DD11D4866
:102690008079012804D11B480088401E001B84B2A9
:1026A0001849488904F0B8F8201204F0A9F8E0B2FB
:1026B00004F0A6F81349888904F0AEF8281204F053
:1026C0009FF8E8B204F09CF812E00E4880790128E7
:1026D00004D10C480088401E001B84B20949488977
:1026E000214604F0AFF807498889294604F0AAF882
:1026F00004480089044908804FF0D840A0F8806061
:1027000070BD0000640000207E00006C00B5A1B028
:102710000020209001217A2004F0BEF90121084612
:1027200004F0CAF94FF400401E9001208DF87C009F
:1027300000208DF87E0002208DF87D0001208DF8AC
:102740007F001EA9FE48FFF7EAFC4CF233701E9092
:1027500002208DF87C0000208DF87E0003208DF88B
:102760007D0001208DF87F001EA9F648FFF7D7FCF9
:102770004FF680701E9002208DF87C0000208DF8AE
:102780007E0003208DF87D0001208DF87F001EA9BA
:10279000ED48FFF7C4FC4FF480501E9002208DF8E6
:1027A0007C0000208DF87E0003208DF87D00012044
:1027B0008DF87F001EA9E548FFF7B1FC4FF480506B
:1027C0001E9002208DF87C0000208DF87E000320F2
:1027D0008DF87D0001208DF87F001EA9DC48FFF7F1
:1027E0009EFC0C220021D748FFF7E1FC0C220121BE
:1027F000D448FFF7DCFC0C220421D248FFF7D7FCB9
:102800000C220521CF48FFF7D2FC0C220821CD482D
:10281000FFF7CDFC0C220921CA48FFF7C8FC0C22A7
:102820000A21C848FFF7C3FC0C220E21C548FFF758
:10283000BEFC0C220F21C348FFF7B9FC0C22072174
:10284000C148FFF7B4FC0C220821BF48FFF7AFFCDA
:102850000C220921BC48FFF7AAFC0C220A21BA4825
:10286000FFF7A5FC0C220B21B748FFF7A0FC0C22B8
:102870001146B548FFF79BFC0C220D21B248FFF72B
:1028800096FC0C220E21B048FFF791FC0C220F2180
:10289000AD48FFF78CFC0C221146AC48FFF787FCD3
:1028A0000C221146AA48FFF782FC0F200890002056
:1028B00009903C200A9000200B900C900D900E90F7
:1028C000092001900020029008200390002004902D
:1028D00005900690079006200F9000201090119010
:1028E00010201290002013901590149016901790BD
:1028F0004FF480501890002019904FF480401A90A7
:1029000000201B9008A81C9001A81D900FA8FFF79D
:1029100093FB01210620FFF775FB322005F01AF822
:102920000121002003F08EFF322005F013F8002073
:1029300003F0BAFB8749888008468088FF280ADBB5
:10294000084680884FF6FF71884204D0814880880D
:10295000B0F5134F7ED1D32003F05EFF03F09AFB56
:102960007C49888003F096FB7A49888003F092FBCB
:1029700078498880084680884FF6FF7101EA002078
:102980007449888003F086FB72498988084371493D
:1029900088800846808849F2413188425AD0BF2059
:1029A00003F03AFF03F076FB6A49888003F072FB7C
:1029B0006849888003F06EFB6649888003F06AFBF3
:1029C00064498880084680884FF6FF7101EA00203C
:1029D0006049888003F05EFB5E49898808435D4951
:1029E00088800846808846F6040188427AD0D42040
:1029F00003F012FF03F04EFB5649888003F04AFBB8
:102A00005449888003F046FB5249888008468088F4
:102A10004FF6FF7101EA00204E49888003F03AFB2F
:102A20004C49898808434B4988800846808845F28C
:102A30001031884256D04FF45A4003F0EDFE03F0B7
:102A400029FB444988804FF45B4003F0E5FE03F026
:102A500021FB00E046E03F498880084680884FF629
:102A6000FF7101EA00203B4988804FF45C4003F08D
:102A7000D3FE03F00FFB3749898808433549888026
:102A800008468088B0F5004F02D145F2105088808A
:102A90003048808845F21051884223D0A12003F0AD
:102AA000BBFE03F0F7FA2B49888003F0F3FA2949BB
:102AB0008880084680884FF6FF7101EA002025498A
:102AC000888003F0E7FA23498988084321498880F0
:102AD0000846808845F26171884203D141F663104F
:102AE0001C4988801B48808849F24131884211D0B6
:102AF0001848808845F2103188420BD015488088EC
:102B000045F21051884205D01248808841F6631181
:102B100088422DD11048006820F00F004FF020416E
:102B2000C1F81C010846D0F81C0120F47060C1F8FF
:102B30001C010846D0F81C0140F003000EE0000024
:102B400000040240000C0240001002400014024049
:102B500000180240640000201C0100A0C1F81C0104
:102B60000846D0F81C0140F40070C1F81C0128E0B0
:102B7000FE48808846F60401884205D0FB488088DC
:102B80004CF2055188421CD1F948006820F00F0032
:102B90004FF02041C1F81C010846D0F81C0120F478
:102BA0007060C1F81C010846D0F81C0140F00A0012
:102BB000C1F81C010846D0F81C0140F44060C1F87F
:102BC0001C01EA488188EBA0FDF768FBE748808894
:102BD00049F2413188427CD1CF2003F01DFE002014
:102BE00003F00EFEC12003F00BFE302003F008FEC0
:102BF000ED2003F011FE642003F002FE032003F039
:102C0000FFFD122003F0FCFD812003F0F9FDE82018
:102C100003F002FE852003F0F3FD102003F0F0FD29
:102C20007A2003F0EDFDCB2003F0F6FD392003F010
:102C3000E7FD2C2003F0E4FD002003F0E1FD34204B
:102C400003F0DEFD022003F0DBFDF72003F0E4FDDE
:102C5000202003F0D5FDEA2003F0DEFD002003F084
:102C6000CFFD002003F0CCFDC02003F0D5FD1B20DC
:102C700003F0C6FDC12003F0CFFD012003F0C0FD2D
:102C8000C52003F0C9FD302003F0BAFD302003F069
:102C9000B7FDC72003F0C0FDB72003F0B1FD36201B
:102CA00003F0BAFD482003F0ABFD3A2003F0B4FD79
:102CB000552003F0A5FDB12003F0AEFD002003F088
:102CC0009FFD1A2003F09CFDB62003F0A5FD0A200D
:102CD00000E099E003F094FDA22003F091FDF220C2
:102CE00003F09AFD002003F08BFD262003F094FDF5
:102CF000012003F085FDE02003F08EFD0F2003F09E
:102D00007FFD2A2003F07CFD282003F079FD0820B8
:102D100003F076FD0E2003F073FD082003F070FD34
:102D2000542003F06DFDA92003F06AFD432003F059
:102D300067FD0A2003F064FD0F2003F061FD002011
:102D400003F05EFD002003F05BFD002003F058FD62
:102D5000002003F055FDE12003F05EFD002003F0AC
:102D60004FFD152003F04CFD172003F049FD07200F
:102D700003F046FD112003F043FD062003F040FD63
:102D80002B2003F03DFD562003F03AFD3C2003F0DC
:102D900037FD052003F034FD102003F031FD0F2036
:102DA00003F02EFD3F2003F02BFD3F2003F028FD14
:102DB0000F2003F025FD2B2003F02EFD002003F053
:102DC0001FFD002003F01CFD012003F019FD3F2032
:102DD00003F016FD2A2003F01FFD002003F010FD74
:102DE000002003F00DFD002003F00AFDEF2003F0AA
:102DF00007FD112003F010FD782004F0ABFD292021
:102E000003F00AFD03F02AB95848808846F6040109
:102E100088427CD1112003F0FFFC142004F09AFDBD
:102E2000D02003F0F9FC072003F0EAFC422003F075
:102E3000E7FC1D2003F0E4FCD12003F0EDFC0020B2
:102E400003F0DEFC1A2003F0DBFC092003F0D8FCC1
:102E5000D22003F0E1FC012003F0D2FC222003F099
:102E6000CFFCC02003F0D8FC102003F0C9FC3B20AD
:102E700003F0C6FC002003F0C3FC022003F0C0FCFA
:102E8000112003F0BDFCC52003F0C6FC032003F0B5
:102E9000B7FCC82003F0C0FC002003F0B1FC2520E3
:102EA00003F0AEFC212003F0ABFC052003F0A8FCEE
:102EB000002003F0A5FC0A2003F0A2FC652003F02B
:102EC0009FFC252003F09CFC772003F099FC502008
:102ED00003F096FC0F2003F093FC002003F090FC1D
:102EE000F82003F099FC012003F08AFCFE2003F097
:102EF00093FC002003F084FC022003F081FC2020DE
:102F000003F08AFC362003F087FC082000E039E05B
:102F100003F076FC3A2003F07FFC552003F070FCB0
:102F20002B2003F079FC002003F06AFC002003F062
:102F300067FC012003F064FC3F2003F061FC2A20C1
:102F400003F06AFC002003F05BFC002003F058FC57
:102F5000012003F055FCDF2003F052FC782004F040
:102F6000F9FC292003F058FC4CE700006400002025
:102F70001C0100A0204C43442049443A25780D0A06
:102F800000000000FE48808845F21031884240F081
:102F90007C87ED2003F040FC012003F031FCFE2093
:102FA00003F02EFCEE2003F037FCDE2003F028FCBB
:102FB000212003F025FCF12003F02EFC012003F07A
:102FC0001FFCDF2003F028FC102003F019FCC420B4
:102FD00003F022FC8F2003F013FCC62003F01CFC3E
:102FE000002003F00DFCE22003F00AFCE22003F0D5
:102FF00007FCE22003F004FCBF2003F00DFCAA2034
:1030000003F0FEFBB02003F007FC0D2003F0F8FBFB
:10301000002003F0F5FB0D2003F0F2FB002003F08D
:10302000EFFB112003F0ECFB002003F0E9FB19207B
:1030300003F0E6FB002003F0E3FB212003F0E0FBBC
:10304000002003F0DDFB2D2003F0DAFB002003F06D
:10305000D7FB3D2003F0D4FB002003F0D1FB5D2023
:1030600003F0CEFB002003F0CBFB5D2003F0C8FB98
:10307000002003F0C5FBB12003F0CEFB802003F05D
:10308000BFFB002003F0BCFB8B2003F0B9FB00204A
:1030900003F0B6FB962003F0B3FB002003F0B0FB77
:1030A000B22003F0B9FB002003F0AAFB002003F0DC
:1030B000A7FB022003F0A4FB002003F0A1FB0320E8
:1030C00003F09EFB002003F09BFBB32003F0A4FB66
:1030D000002003F095FB002003F092FB002003F09A
:1030E0008FFB002003F08CFB002003F089FB002005
:1030F00003F086FB002003F083FB002003F080FB3D
:10310000002003F07DFB002003F07AFB002003F099
:1031100077FB002003F074FB002003F071FB00201C
:1031200003F06EFB002003F06BFB002003F068FB54
:10313000002003F065FB002003F062FB002003F099
:103140005FFB002003F05CFB002003F059FB002034
:1031500003F056FB002003F053FB002003F050FB6C
:10316000B42003F059FB8B2003F04AFB002003F04E
:1031700047FB962003F044FB002003F041FBA12015
:1031800003F03EFB002003F03BFBB52003F044FBC3
:10319000022003F035FB002003F032FB032003F094
:1031A0002FFB002003F02CFB042003F029FB002060
:1031B00003F026FBB62003F02FFB002003F020FBDA
:1031C000002003F01DFBB72003F026FB002003F0D6
:1031D00017FB002003F014FB3F2003F011FB00203D
:1031E00003F00EFB5E2003F00BFB002003F008FB56
:1031F000642003F005FB002003F002FB8C2003F0A9
:10320000FFFA002003F0FCFAAC2003F0F9FA0020EA
:1032100003F0F6FADC2003F0F3FA002003F0F0FAF2
:10322000702003F0EDFA002003F0EAFA902003F09A
:10323000E7FA002003F0E4FAEB2003F0E1FA0020C3
:1032400003F0DEFADC2003F0DBFA002003F0D8FA0A
:10325000B82003F0E1FA002003F0D2FA002003F0D6
:10326000CFFA002003F0CCFA002003F0C9FA0020C6
:1032700003F0C6FA002003F0C3FA002003F0C0FAFE
:10328000002003F0BDFABA2003F0C6FA242003F0B0
:10329000B7FA002003F0B4FA002003F0B1FA0020DE
:1032A00003F0AEFAC12003F0B7FA202003F0A8FA29
:1032B000002003F0A5FA542003F0A2FA002003F046
:1032C0009FFAFF2003F09CFA002003F099FAC22035
:1032D00003F0A2FA0A2003F093FA002003F090FA18
:1032E000042003F08DFA002003F08AFAC32003F0D3
:1032F00093FA3C2003F084FA002003F081FA3A208C
:1033000003F07EFA002003F07BFA392003F078FA0C
:10331000002003F075FA372003F072FA002003F062
:103320006FFA3C2003F06CFA002003F069FA3620B3
:1033300003F066FA002003F063FA322003F060FA2B
:10334000002003F05DFA2F2003F05AFA002003F06A
:1033500057FA2C2003F054FA002003F051FA2920E8
:1033600003F04EFA002003F04BFA262003F048FA4F
:10337000002003F045FA242003F042FA002001E087
:103380006400002003F03CFA242003F039FA002006
:1033900003F036FA232003F033FA002003F030FA6A
:1033A0003C2003F02DFA002003F02AFA362003F027
:1033B00027FA002003F024FA322003F021FA00203B
:1033C00003F01EFA2F2003F01BFA002003F018FA76
:1033D0002C2003F015FA002003F012FA292003F044
:1033E0000FFA002003F00CFA262003F009FA00205F
:1033F00003F006FA242003F003FA002003F000FA99
:10340000242003F0FDF9002003F0FAF9232003F053
:10341000F7F9002003F0F4F9C42003F0FDF962206D
:1034200003F0EEF9002003F0EBF9052003F0E8F9D2
:10343000002003F0E5F9842003F0E2F9002003F016
:10344000DFF9F02003F0DCF9002003F0D9F91820AF
:1034500003F0D6F9002003F0D3F9A42003F0D0F94B
:10346000002003F0CDF9182003F0CAF9002003F082
:10347000C7F9502003F0C4F9002003F0C1F90C2073
:1034800003F0BEF9002003F0BBF9172003F0B8F9F0
:10349000002003F0B5F9952003F0B2F9002003F005
:1034A000AFF9F32003F0ACF9002003F0A9F9E6200E
:1034B00003F0A6F9002003F0A3F9C52003F0ACF94E
:1034C000322003F09DF9002003F09AF9442003F024
:1034D00097F9002003F094F9652003F091F900209A
:1034E00003F08EF9762003F08BF9002003F088F9C1
:1034F000882003F085F9002003F082F9C62003F04C
:103500008BF9202003F07CF9002003F079F91720D3
:1035100003F076F9002003F073F9012003F070F94D
:10352000002003F06DF9C72003F076F9002003F0C6
:1035300067F9002003F064F9002003F061F900202E
:1035400003F05EF9C82003F067F9002003F058F992
:10355000002003F055F9002003F052F9002003F099
:103560004FF9C92003F058F9002003F049F9002071
:1035700003F046F9002003F043F9002003F040F97E
:10358000002003F03DF9002003F03AF9002003F099
:1035900037F9002003F034F9002003F031F900205E
:1035A00003F02EF9002003F02BF9002003F028F996
:1035B000002003F025F9002003F022F9002003F099
:1035C0001FF9002003F01CF9E02003F025F9162074
:1035D00003F016F9002003F013F91C2003F010F992
:1035E000002003F00DF9212003F00AF9002003F078
:1035F00007F9362003F004F9002003F001F9462012
:1036000003F0FEF8002003F0FBF8522003F0F8F876
:10361000002003F0F5F8642003F0F2F8002003F036
:10362000EFF87A2003F0ECF8002003F0E9F88B20A3
:1036300003F0E6F8002003F0E3F8992003F0E0F847
:10364000002003F0DDF8A82003F0DAF8002003F0F2
:10365000D7F8B92003F0D4F8002003F0D1F8C42043
:1036600003F0CEF8002003F0CBF8CA2003F0C8F82E
:10367000002003F0C5F8D22003F0C2F8002003F0C8
:10368000BFF8D92003F0BCF8002003F0B9F8E0201F
:1036900003F0B6F8002003F0B3F8F32003F0B0F81D
:1036A000002003F0ADF8E12003F0B6F8162003F097
:1036B000A7F8002003F0A4F81C2003F0A1F80020D4
:1036C00003F09EF8222003F09BF8002003F098F806
:1036D000362003F095F8002003F092F8452003F01F
:1036E0008FF8002003F08CF8522003F089F80020B6
:1036F00003F086F8642003F083F8002003F080F8DC
:103700007A2003F07DF8002003F07AF88B2003F094
:1037100077F8002003F074F8992003F071F8002086
:1037200003F06EF8A82003F06BF8002003F068F8AF
:10373000B92003F065F8002003F062F8C42003F01C
:103740005FF8002003F05CF8CA2003F059F800206D
:1037500003F056F8D22003F053F8002003F050F89D
:10376000D82003F04DF8002003F04AF8E02003F0E1
:1037700047F8002003F044F8F32003F041F800205C
:1037800003F03EF8E22003F047F8052003F038F894
:10379000002003F035F80B2003F032F8002003F08E
:1037A0002FF81B2003F02CF8002003F029F8342018
:1037B00003F026F8002003F023F8442003F020F85B
:1037C000002003F01DF84F2003F01AF8002003F04A
:1037D00017F8612003F014F8002003F011F87920A5
:1037E00003F00EF8002003F00BF8882003F008F82F
:1037F000002003F005F8972003F002F8002002F003
:10380000FFFFA62002F0FCFF002002F0F9FFB72026
:1038100002F0F6FF002002F0F3FFC22002F0F0FFFA
:10382000002002F0EDFFC72002F0EAFF002002F0C6
:10383000E7FFD12002F0E4FF002002F0E1FFD620F4
:1038400002F0DEFF002002F0DBFFDD2002F0D8FFF7
:10385000002002F0D5FFF32002F0D2FF002002F09A
:10386000CFFFE32002F0D8FF052002F0C9FF0020BF
:1038700002F0C6FF0A2002F0C3FF002002F0C0FFE2
:103880001C2002F0BDFF002002F0BAFF332002F03E
:10389000B7FF002002F0B4FF442002F0B1FF002087
:1038A00002F0AEFF502002F0ABFF002002F0A8FFB4
:1038B000622002F0A5FF002002F0A2FF782002F0B3
:1038C0009FFF002002F09CFF882002F099FF00205B
:1038D00002F096FF972002F093FF002002F090FF85
:1038E000A62002F08DFF002002F08AFFB72002F030
:1038F00087FF002002F084FFC22002F081FF002039
:1039000002F07EFFC72002F07BFF002002F078FF6C
:10391000D12002F075FF002002F072FFD52002F0E6
:103920006FFF002002F06CFFDD2002F069FF002035
:1039300002F066FFF32002F063FF002002F060FF58
:10394000E42002F069FF012002F05AFF002002F09B
:1039500057FF012002F054FF002002F051FF022027
:1039600002F04EFF002002F04BFF2A2002F048FF39
:10397000002002F045FF3C2002F042FF002002F050
:103980003FFF4B2002F03CFF002002F039FF5D209A
:1039900002F036FF002002F033FF742002F030FF07
:1039A000002002F02DFF842002F02AFF002002F008
:1039B00027FF932002F024FF002002F021FFA22025
:1039C00002F01EFF002002F01BFFB32002F018FFE0
:1039D000002002F015FFBE2002F012FF002002F0CE
:1039E0000FFFC42002F00CFF002002F009FFCD20E1
:1039F00002F006FF002002F003FFD32002F000FFD8
:103A0000002002F0FDFEDD2002F0FAFE002002F0B0
:103A1000F7FEF32002F0F4FE002002F0F1FEE520B4
:103A200002F0FAFE002002F0EBFE002002F0E8FEB9
:103A3000002002F0E5FE002002F0E2FE022002F08B
:103A4000DFFE002002F0DCFE292002F0D9FE00207B
:103A500002F0D6FE3C2002F0D3FE002002F0D0FEA1
:103A60004B2002F0CDFE002002F0CAFE5D2002F0E5
:103A7000C7FE002002F0C4FE742002F0C1FE002048
:103A800002F0BEFE842002F0BBFE002002F0B8FE71
:103A9000932002F0B5FE002002F0B2FEA22002F058
:103AA000AFFE002002F0ACFEB32002F0A9FE002021
:103AB00002F0A6FEBE2002F0A3FE002002F0A0FE4F
:103AC000C42002F09DFE002002F09AFECD2002F0FC
:103AD00097FE002002F094FED32002F091FE002019
:103AE00002F08EFEDC2002F08BFE002002F088FE49
:103AF000F32002F085FE002002F082FEE62002F0B4
:103B00008BFE112002F07CFE002002F079FE3420B2
:103B100002F076FE002002F073FE562002F070FEE6
:103B2000002002F06DFE762002F06AFE002002F016
:103B300067FE772002F064FE002002F061FE66203E
:103B400002F05EFE002002F05BFE882002F058FECC
:103B5000002002F055FE992002F052FE002002F0F3
:103B60004FFEBB2002F04CFE002002F049FE9920DF
:103B700002F046FE002002F043FE662002F040FE06
:103B8000002002F03DFE552002F03AFE002002F037
:103B900037FE552002F034FE002002F031FE4520B1
:103BA00002F02EFE002002F02BFE432002F028FE41
:103BB000002002F025FE442002F022FE002002F048
:103BC0001FFEE72002F028FE322002F019FE00203E
:103BD00002F016FE552002F013FE002002F010FE47
:103BE000762002F00DFE002002F00AFE662002F0B0
:103BF00007FE002002F004FE672002F001FE002014
:103C000002F0FEFD672002F0FBFD002002F0F8FD4F
:103C1000872002F0F5FD002002F0F2FD992002F06D
:103C2000EFFD002002F0ECFDBB2002F0E9FD0020DA
:103C300002F0E6FD992002F0E3FD002002F0E0FD35
:103C4000772002F0DDFD002002F0DAFD442002F0D2
:103C5000D7FD002002F0D4FD562002F0D1FD002057
:103C600002F0CEFD232002F0CBFD002002F0C8FDC3
:103C7000332002F0C5FD002002F0C2FD452002F015
:103C8000BFFD002002F0BCFDE82002F0C5FD0020D1
:103C900002F0B6FD002002F0B3FD992002F0B0FD65
:103CA000002002F0ADFD872002F0AAFD002002F006
:103CB000A7FD882002F0A4FD002002F0A1FD7720DE
:103CC00002F09EFD002002F09BFD662002F098FDB0
:103CD000002002F095FD882002F092FD002002F005
:103CE0008FFDAA2002F08CFD002002F089FDBB2090
:103CF00002F086FD002002F083FD992002F080FD95
:103D0000002002F07DFD662002F07AFD002002F026
:103D100077FD552002F074FD002002F071FD552062
:103D200002F06EFD002002F06BFD442002F068FD01
:103D3000002002F065FD442002F062FD002002F048
:103D40005FFD552002F05CFD002002F059FDE920E6
:103D500002F062FDAA2002F053FD002002F050FDA7
:103D6000002002F04DFD002002F04AFD002002F08C
:103D700053FDAA2002F044FDCF2002F04DFD0020AB
:103D800002F03EFD002002F03BFD002002F038FD75
:103D9000002002F035FD002002F032FD002002F08C
:103DA0002FFD002002F02CFD002002F029FD002054
:103DB00002F026FD002002F023FD002002F020FD8D
:103DC000002002F01DFD002002F01AFD002002F08C
:103DD00017FD002002F014FD002002F011FD00206C
:103DE00002F00EFDF02002F017FD002002F008FDA9
:103DF000502002F005FD002002F002FD002002F03C
:103E0000FFFC002002F0FCFCF32002F005FD002086
:103E100002F0F6FCF92002F0FFFC062002F0F0FCB4
:103E2000102002F0EDFC292002F0EAFC002002F054
:103E3000E7FC3A2002F0F0FC552002F0E1FC1120F2
:103E400002F0EAFC642003F085FD292002F0E4FC86
:103E5000352002F0E1FC002002F0D2FC512002F0FB
:103E6000DBFCFF2002F0CCFC532002F0D5FC2C2020
:103E700002F0C6FC552002F0CFFC822002F0C0FC0C
:103E80002C2002F0C9FC02F0E9B8FE48808845F217
:103E9000105188427ED155214FF4704002F0D2FC7F
:103EA000AA214FF2010002F0CDFC52214FF2020094
:103EB00002F0C8FC08214FF2030002F0C3FC01210C
:103EC0004FF2040002F0BEFC0D214FF4304002F02E
:103ED000B9FC0D214BF2010002F0B4FC0D214BF2B4
:103EE000020002F0AFFC34214FF4364002F0AAFC8D
:103EF00034214BF2016002F0A5FC34214BF2026048
:103F000002F0A0FC0D214FF4314002F09BFC0D218A
:103F10004BF2011002F096FC0D214BF2021002F060
:103F200091FC34214FF4374002F08CFC34214BF2E9
:103F3000017002F087FC34214BF2027002F082FC27
:103F400000214FF4324002F07DFC00214BF20120B1
:103F500002F078FC00214BF2022002F073FC2421D5
:103F60004FF4384002F06EFC24214BF6010002F0C1
:103F700069FC24214BF6020002F064FC01214FF49D
:103F80003F4002F05FFC0F214FF4334002F05AFC37
:103F90000F2100E0FEE34BF2013002F053FC0F2151
:103FA0004BF2023002F04EFC34214FF4394002F063
:103FB00049FC34214BF6011002F044FC34214BF64D
:103FC000021002F03FFC08214FF4354002F03AFCA9
:103FD00008214BF2015002F035FC08214BF202504F
:103FE00002F030FC03214FF4424002F02BFC24216C
:103FF0004FF43A4002F026FC24214BF6012002F057
:1040000021FC24214BF6022002F01CFC00214FF47D
:104010003C4002F017FC78214BF6014002F012FC04
:1040200000214BF6024002F00DFC00214FF43D4010
:1040300002F008FC78214BF6015002F003FC00214D
:104040004BF6025002F0FEFB00214FF43E4002F01E
:10405000F9FB64214BF6016002F0F4FB00214FF400
:10406000514002F0EFFB33214DF2011002F0EAFB68
:1040700000214DF2021002F0E5FB34214DF2031055
:1040800002F0E0FB00214DF2041002F0DBFB3A21CC
:104090004DF2051002F0D6FB00214DF2061002F0A1
:1040A000D1FB4A214DF2071002F0CCFB00214DF26A
:1040B000081002F0C7FB5C214DF2091002F0C2FBB0
:1040C00000214DF20A1002F0BDFB81214DF20B10D0
:1040D00002F0B8FB00214DF20C1002F0B3FBA62158
:1040E0004DF20D1002F0AEFB00214DF20E1002F069
:1040F000A9FBE5214DF20F1002F0A4FB01214DF2C6
:10410000101002F09FFB13214DF2111002F09AFBE8
:1041100001214DF2121002F095FB54214DF21310C3
:1041200002F090FB01214DF2141002F08BFB822172
:104130004DF2151002F086FB01214DF2161002F02F
:1041400081FBCA214DF2171002F07CFB02214DF2D7
:10415000181002F077FB00214DF2191002F072FBEB
:1041600002214DF21A1002F06DFB01214DF21B10DD
:1041700002F068FB02214DF21C1002F063FB3421B7
:104180004DF21D1002F05EFB02214DF21E1002F0F6
:1041900059FB67214DF21F1002F054FB02214DF232
:1041A000201002F04FFB84214DF2211002F04AFB57
:1041B00002214DF2221002F045FBA4214DF2231002
:1041C00002F040FB02214DF2241002F03BFBB7212C
:1041D0004DF2251002F036FB02214DF2261002F0BE
:1041E00031FBCF214DF2271002F02CFB02214DF2C2
:1041F000281002F027FBDE214DF2291002F022FBED
:1042000002214DF22A1002F01DFBF2214DF22B107B
:1042100002F018FB02214DF22C1002F013FBFE21DC
:104220004DF22D1002F00EFB03214DF22E1002F084
:1042300009FB10214DF22F1002F004FB03214DF277
:10424000301002F0FFFA33214DF2311002F0FAFA89
:1042500003214DF2321002F0F5FA6D214DF23310C8
:1042600002F0F0FA00214FF4524002F0EBFA332151
:104270004DF2012002F0E6FA00214DF2022002F098
:10428000E1FA01E06400002034214DF2032002F045
:10429000D9FA00214DF2042002F0D4FA3A214DF26D
:1042A000052002F0CFFA00214DF2062002F0CAFAF2
:1042B0004A214DF2072002F0C5FA00214DF20820F4
:1042C00002F0C0FA5C214DF2092002F0BBFA002195
:1042D0004DF20A2002F0B6FA81214DF20B2002F0D5
:1042E000B1FA00214DF20C2002F0ACFAA6214DF2F9
:1042F0000D2002F0A7FA00214DF20E2002F0A2FAE2
:10430000E5214DF20F2002F09DFA01214DF210201F
:1043100002F098FA13214DF2112002F093FA0121D4
:104320004DF2122002F08EFA54214DF2132002F0C9
:1043300089FA01214DF2142002F084FA82214DF213
:10434000152002F07FFA01214DF2162002F07AFAD0
:10435000CA214DF2172002F075FA02214DF2182001
:1043600002F070FA00214DF2192002F06BFA0221DE
:104370004DF21A2002F066FA01214DF21B2002F0E4
:1043800061FA02214DF21C2002F05CFA34214DF258
:104390001D2002F057FA02214DF21E2002F052FABF
:1043A00067214DF21F2002F04DFA02214DF220202C
:1043B00002F048FA84214DF2212002F043FA022152
:1043C0004DF2222002F03EFAA4214DF2232002F009
:1043D00039FA02214DF2242002F034FAB7214DF2CD
:1043E000252002F02FFA02214DF2262002F02AFAAF
:1043F000CF214DF2272002F025FA02214DF228208C
:1044000002F020FADE214DF2292002F01BFA0221EF
:104410004DF22A2002F016FAF2214DF22B2002F082
:1044200011FA02214DF22C2002F00CFAFE214DF27D
:104430002D2002F007FA03214DF22E2002F002FA9D
:1044400010214DF22F2002F0FDF903214DF2302012
:1044500002F0F8F933214DF2312002F0F3F9032193
:104460004DF2322002F0EEF96D214DF2332002F0D0
:10447000E9F900214FF4534002F0E4F933214DF201
:10448000013002F0DFF900214DF2023002F0DAF9DA
:1044900034214DF2033002F0D5F900214DF2043001
:1044A00002F0D0F93A214DF2053002F0CBF90021AB
:1044B0004DF2063002F0C6F94A214DF2073002F003
:1044C000C1F900214DF2083002F0BCF95C214DF237
:1044D000093002F0B7F900214DF20A3002F0B2F9CA
:1044E00081214DF20B3002F0ADF900214DF20C307C
:1044F00002F0A8F9A6214DF20D3002F0A3F9002137
:104500004DF20E3002F09EF9E5214DF20F3002F02F
:1045100099F901214DF2103002F094F913214DF276
:10452000113002F08FF901214DF2123002F08AF9B8
:1045300054214DF2133002F085F901214DF214306F
:1045400002F080F982214DF2153002F07BF9012151
:104550004DF2163002F076F9CA214DF2173002F012
:1045600071F902214DF2183002F06CF900214DF280
:10457000193002F067F902214DF21A3002F062F9A7
:1045800001214DF21B3002F05DF902214DF21C3089
:1045900002F058F934214DF21D3002F053F9022196
:1045A0004DF21E3002F04EF967214DF21F3002F03D
:1045B00049F902214DF2203002F044F984214DF2F4
:1045C000213002F03FF902214DF2223002F03AF997
:1045D000A4214DF2233002F035F902214DF22430AE
:1045E00002F030F9B7214DF2253002F02BF902210B
:1045F0004DF2263002F026F9CF214DF2273002F09D
:1046000021F902214DF2283002F01CF9DE214DF291
:10461000293002F017F902214DF22A3002F012F986
:10462000F2214DF22B3002F00DF902214DF22C3027
:1046300002F008F9FE214DF22D3002F003F90321BA
:104640004DF22E3002F0FEF810214DF22F3002F024
:10465000F9F803214DF2303002F0F4F833214DF235
:10466000313002F0EFF803214DF2323002F0EAF877
:104670006D214DF2333002F0E5F800214FF4544043
:1046800002F0E0F833214DF2014002F0DBF80021A6
:104690004DF2024002F0D6F834214DF2034002F010
:1046A000D1F800214DF2044002F0CCF83A214DF24D
:1046B000054002F0C7F800214DF2064002F0C2F8B2
:1046C0004A214DF2074002F0BDF800214DF20840AA
:1046D00002F0B8F85C214DF2094002F0B3F8002175
:1046E0004DF20A4002F0AEF881214DF20B4002F08B
:1046F000A9F800214DF20C4002F0A4F8A6214DF2D9
:104700000D4002F09FF800214DF20E4002F09AF8A1
:10471000E5214DF20F4002F095F801214DF21040D5
:1047200002F090F813214DF2114002F08BF80121B4
:104730004DF2124002F086F854214DF2134002F07F
:1047400081F801214DF2144002F07CF882214DF2F3
:10475000154002F077F801214DF2164002F072F890
:10476000CA214DF2174002F06DF802214DF21840B7
:1047700002F068F800214DF2194002F063F80221BE
:104780004DF21A4002F05EF801214DF21B4002F09A
:1047900059F800E004E302214DF21C4002F052F807
:1047A00034214DF21D4002F04DF802214DF21E4021
:1047B00002F048F867214DF21F4002F043F8022151
:1047C0004DF2204002F03EF884214DF2214002F0EB
:1047D00039F802214DF2224002F034F8A4214DF2C2
:1047E000234002F02FF802214DF2244002F02AF873
:1047F000B7214DF2254002F025F802214DF2264066
:1048000002F020F8CF214DF2274002F01BF80221E0
:104810004DF2284002F016F8DE214DF2294002F058
:1048200011F802214DF22A4002F00CF8F2214DF26B
:104830002B4002F007F802214DF22C4002F002F862
:10484000FE214DF22D4001F0FDFF03214DF22E40DF
:1048500001F0F8FF10214DF22F4001F0F3FF03218A
:104860004DF2304001F0EEFF33214DF2314001F0C6
:10487000E9FF03214DF2324001F0E4FF6D214DF2DA
:10488000334001F0DFFF00214FF4554001F0DAFF23
:1048900033214DF2015001F0D5FF00214DF20250BD
:1048A00001F0D0FF34214DF2035001F0CBFF002185
:1048B0004DF2045001F0C6FF3A214DF2055001F0CF
:1048C000C1FF00214DF2065001F0BCFF4A214DF21C
:1048D000075001F0B7FF00214DF2085001F0B2FF80
:1048E0005C214DF2095001F0ADFF00214DF20A505C
:1048F00001F0A8FF81214DF20B5001F0A3FF002130
:104900004DF20C5001F09EFFA6214DF20D5001F02A
:1049100099FF00214DF20E5001F094FFE5214DF278
:104920000F5001F08FFF01214DF2105001F08AFF6E
:1049300013214DF2115001F085FF01214DF212506B
:1049400001F080FF54214DF2135001F07BFF012153
:104950004DF2145001F076FF82214DF2155001F016
:1049600071FF01214DF2165001F06CFFCA214DF28A
:10497000175001F067FF02214DF2185001F062FF5D
:1049800000214DF2195001F05DFF02214DF21A5045
:1049900001F058FF01214DF21B5001F053FF02219D
:1049A0004DF21C5001F04EFF34214DF21D5001F02C
:1049B00049FF02214DF21E5001F044FF67214DF2E4
:1049C0001F5001F03FFF02214DF2205001F03AFF4D
:1049D00084214DF2215001F035FF02214DF2225089
:1049E00001F030FFA4214DF2235001F02BFF0221F2
:1049F0004DF2245001F026FFB7214DF2255001F071
:104A000021FF02214DF2265001F01CFFCF214DF273
:104A1000275001F017FF02214DF2285001F012FF3C
:104A2000DE214DF2295001F00DFF02214DF22A50F6
:104A300001F008FFF2214DF22B5001F003FF02219B
:104A40004DF22C5001F0FEFEFE214DF22D5001F0F2
:104A5000F9FE03214DF22E5001F0F4FE10214DF22B
:104A60002F5001F0EFFE03214DF2305001F0EAFE2D
:104A700033214DF2315001F0E5FE03214DF2325069
:104A800001F0E0FE6D214DF2335001F0DBFE00211C
:104A90004FF4564001F0D6FE33214DF2016001F093
:104AA000D1FE00214DF2026001F0CCFE34214DF226
:104AB000036001F0C7FE00214DF2046001F0C2FE68
:104AC0003A214DF2056001F0BDFE00214DF2066075
:104AD00001F0B8FE4A214DF2076001F0B3FE00215B
:104AE0004DF2086001F0AEFE5C214DF2096001F06C
:104AF000A9FE00214DF20A6001F0A4FE81214DF2D1
:104B00000B6001F09FFE00214DF20C6001F09AFE57
:104B1000A6214DF20D6001F095FE00214DF20E60D0
:104B200001F090FEE5214DF20F6001F08BFE0121B6
:104B30004DF2106001F086FE13214DF2116001F07C
:104B400081FE01214DF2126001F07CFE54214DF2F4
:104B5000136001F077FE01214DF2146001F072FE46
:104B600082214DF2156001F06DFE01214DF21660BB
:104B700001F068FECA214DF2176001F063FE0221C8
:104B80004DF2186001F05EFE00214DF2196001F057
:104B900059FE02214DF21A6001F054FE01214DF23E
:104BA0001B6001F04FFE02214DF21C6001F04AFE35
:104BB00034214DF21D6001F045FE02214DF21E60D0
:104BC00001F040FE67214DF21F6001F03BFE022123
:104BD0004DF2206001F036FE84214DF2216001F09B
:104BE00031FE02214DF2226001F02CFEA4214DF293
:104BF000236001F027FE02214DF2246001F022FE25
:104C0000B7214DF2256001F01DFE02214DF2266014
:104C100001F018FECF214DF2276001F013FE0221B2
:104C20004DF2286001F00EFEDE214DF2296001F008
:104C300009FE02214DF22A6001F004FEF2214DF23C
:104C40002B6001F0FFFD02214DF22C6001F0FAFD16
:104C5000FE214DF22D6001F0F5FD03214DF22E6095
:104C600001F0F0FD10214DF22F6001F0EBFD03216A
:104C70004DF2306001F0E6FD33214DF2316001F07C
:104C8000E1FD03214DF2326001F0DCFD6D214DF2BA
:104C9000336001F0D7FD55214FF4704001F0D2FD93
:104CA000AA214FF2010001F0CDFD52214FF2020086
:104CB00001F0C8FD08214FF2030001F0C3FD0021FF
:104CC0004FF2040001F0BEFDCC214FF4314001F061
:104CD000B9FD00214BF2011001F0B4FD05214FF4A4
:104CE000364001F0AFFD70214FF4374001F0AAFDCE
:104CF00070214BF2017001F0A5FD01214FF4384005
:104D000001F0A0FD03214BF6010001F09BFD032102
:104D10004BF6020001F096FD03214BF6030001F073
:104D200091FD02214FF43C4001F08CFD00214BF637
:104D3000014001F087FD00214BF6024001F082FDA9
:104D4000D0214FF4494001F07DFD02214CF60110C5
:104D500001F078FD50214CF6021001F073FD502156
:104D60004CF6031001F06EFD50214CF6041001F0DA
:104D700069FD00214FF4545001F064FD55214FF4BA
:104D8000685001F05FFD4FF4885001F045FD782038
:104D900002F0FCFD4FF4245001F03EFD01F05EB93D
:104DA000FE48808849F2253188427DD147F6F001DE
:104DB000E52001F047FD4FF48071012001F042FD34
:104DC0004FF4E061022001F03DFD41F2300103208B
:104DD00001F038FD0021042001F034FD40F20221F1
:104DE000082001F02FFD0021092001F02BFD0021FA
:104DF0000A2001F027FD00210C2001F023FD0021F5
:104E00000D2001F01FFD00210F2001F01BFD0021EE
:104E1000102001F017FD0721112001F013FD0021E2
:104E2000122001F00FFD0021132001F00BFD0021E5
:104E3000072001F007FD41F29061102001F002FD12
:104E400040F22721112001F0FDFC9D21122001F0EC
:104E5000F9FC4FF4C851132001F0F4FC252129205E
:104E600001F0F0FC0D212B2001F0ECFC072130209B
:104E700001F0E8FC40F20331312001F0E3FC0321B2
:104E8000322001F0DFFC40F20621352001F0DAFC8F
:104E90000821362001F0D6FC40F20641372001F00F
:104EA000D1FC4FF4417100E058E0382001F0CAFC19
:104EB0000721392001F0C6FC40F202613C2001F0DC
:104EC000C1FC08213D2001F0BDFC0021502001F073
:104ED000B9FCEF21512001F0B5FC0021522001F076
:104EE000B1FC40F23F11532001F0ACFC4FF42741DC
:104EF000602001F0A7FC0121612001F0A3FC00214A
:104F00006A2001F09FFC0021802001F09BFC002121
:104F1000812001F097FC0021822001F093FC002108
:104F2000832001F08FFC0021842001F08BFC002104
:104F3000852001F087FC1021902001F083FC4FF4C4
:104F4000C061922001F07EFC40F23311072001F095
:104F500079FC2221002001F075FC1FE78F48808832
:104F600049F2283188427DD141F28F01EC2001F0D5
:104F700069FC41F23421EF2001F064FC4FF48071B0
:104F8000012001F05FFC4FF4E061022001F05AFCC7
:104F900041F23001032001F055FC0021042001F012
:104FA00051FC40F20221082001F04CFC00210920B4
:104FB00001F048FC00210A2001F044FC01210C20F2
:104FC00001F040FC00210D2001F03CFC00210F20ED
:104FD00001F038FC0021102001F034FC07211120E1
:104FE00001F030FC0021122001F02CFC00211320E4
:104FF00001F028FC0121072001F024FC322002F0FE
:10500000A9FC41F29041102001F01CFC40F2272144
:10501000112001F017FC322002F09CFC8A211220A2
:1050200001F010FC322002F095FC4FF4D051132017
:1050300001F008FC0621292001F004FC0D212B20A1
:1050400001F000FC322002F085FC0021202001F05C
:10505000F9FB0021212001F0F5FB322002F07AFC5F
:10506000002100E075E0302001F0ECFB40F204612B
:10507000312001F0E7FB40F20531322001F0E2FB84
:105080000021352001F0DEFB40F60941362001F019
:10509000D9FB4FF40171372001F0D4FB40F201310C
:1050A000382001F0CFFB40F20771392001F0CAFB34
:1050B00000213C2001F0C6FB40F60A213D2001F012
:1050C000C1FB322002F046FC0021502001F0BAFB67
:1050D000EF21512001F0B6FB0021522001F0B2FB7C
:1050E00040F23F11532001F0ADFB4FF42741602007
:1050F00001F0A8FB0121612001F0A4FB00216A203E
:1051000001F0A0FB0021802001F09CFB0021812008
:1051100001F098FB0021822001F094FB0021832004
:1051200001F090FB0021842001F08CFB0021852000
:1051300001F088FB1021902001F084FB4FF4C06146
:10514000922001F07FFB40F23311072001F07AFB3F
:1051500024E61248808849F2203188427ED100211D
:10516000084601F06FFB4FF48071012001F06AFBEB
:105170004FF4E061022001F065FB41F230010320B1
:1051800001F060FB0021042001F05CFB40F20221F1
:10519000082001F057FB0021092001E064000020F5
:1051A00001F050FB00210A2001F04CFB01210C20F2
:1051B00001F048FB00210D2001F044FB00210F20ED
:1051C00001F040FB322002F0C5FB40F20111072044
:1051D00001F038FB322002F0BDFB4FF48651102065
:1051E00001F030FB0721112001F02CFB4FF48871F6
:1051F000122001F027FB4FF43061132001F022FB55
:105200000021292001F01EFB44F210012B2001F0A7
:1052100019FB0021502001F015FBEF21512001F076
:1052200011FB0021522001F00DFB40F23F115320F1
:1052300001F008FB4FF41C51602001F003FB012139
:10524000612001F0FFFA00216A2001F0FBFA002141
:10525000802001F0F7FA0021812000E030E001F029
:10526000F1FA0021822001F0EDFA0021832001F003
:10527000E9FA0021842001F0E5FA0021852001F0FF
:10528000E1FA1021902001F0DDFA0021922001F0D6
:10529000D9FA0121932001F0D5FA4FF488719520B5
:1052A00001F0D0FA0021972001F0CCFA00219820DB
:1052B00001F0C8FA40F27311072001F0C3FA6DE55E
:1052C000FE48808849F2313188427DD141F2140193
:1052D000E72001F0B7FA4FF48071012001F0B2FA33
:1052E0004FF40071022001F0ADFA41F238010320C1
:1052F00001F0A8FA40F20221082001F0A3FA0021EF
:10530000092001F09FFA00210A2001F09BFA0021F8
:105310000C2001F097FA00210D2001F093FA0021F2
:105320000F2001F08FFA0021102001F08BFA0721E5
:10533000112001F087FA0021122001F083FA0021E8
:10534000132001F07FFAC82002F004FB41F29061C3
:10535000102001F077FA40F22721112001F072FAB3
:10536000322002F0F7FA0C21122001F06BFA322001
:1053700002F0F0FA4FF40061132001F063FA1121FA
:10538000292001F05FFA0B212B2001F05BFA32207B
:1053900002F0E0FA0021202001F054FA40F23F111F
:1053A000212001F04FFA0021302001F04BFA4FF498
:1053B0008371312001F046FA0021322001F042FAD7
:1053C0004FF40171352000E064E001F03BFA41F256
:1053D0000A61362001F036FA40F20771372001F0F9
:1053E00031FA4FF48371382001F02CFA40F2077142
:1053F000392001F027FA40F202413C2001F022FA64
:1054000040F60F413D2001F01DFA0021502001F02F
:1054100019FAEF21512001F015FA0021522001F074
:1054200011FA40F23F11532001F00CFA4FF41C51D5
:10543000602001F007FA0121612001F003FA002148
:105440006A2001F0FFF90021802001F0FBF9002122
:10545000812001F0F7F90021822001F0F3F9002109
:10546000832001F0EFF90021842001F0EBF9002105
:10547000852001F0E7F91021902001F0E3F94FF4C5
:10548000C061922001F0DEF940F23311072001F0F3
:10549000D9F983E48948808845F2084188427DD162
:1054A0004FF48071012001F0CDF94FF4E06102204A
:1054B00001F0C8F941F23001032001F0C3F90021E5
:1054C000042001F0BFF940F20721082001F0BAF9E9
:1054D0000021092001F0B6F900210A2001F0B2F9FB
:1054E00000210C2001F0AEF900210D2001F0AAF9F5
:1054F00000210F2001F0A6F9142002F02BFA41F24E
:10550000B061102001F09EF90121112001F09AF9FB
:105510000121172001F096F94FF49C71122001F03F
:1055200091F94FF40061132001F08CF90921292031
:1055300001F088F909212A2001F084F90021A42032
:1055400001F080F90021502001F07CF9EF21512079
:1055500001F078F90021522001F074F940F23F1176
:10556000532001F06FF94FF41C51602001F06AF9EB
:105570000121612001F066F900216A2001F062F941
:105580000021802001F05EF90021812001F05AF90C
:105590000021822001F056F9002100E024E0832060
:1055A00001F050F90021842001F04CF90021852000
:1055B00001F048F91321902001F044F900219220D4
:1055C00001F040F90321932001F03CF94FF4887178
:1055D000952001F037F940F27311072001F032F9FC
:1055E000322002F0B7F9B8E43448808841F205511E
:1055F00088427DD10021072001F024F9322002F0F9
:10560000A9F94FF48E71122001F01CF90121A42098
:1056100001F018F90F21082001F014F908210A20DF
:1056200001F010F908210D2001F00CF940F207718A
:10563000302001F007F90721312001F003F940F291
:105640000361322001F0FEF84FF4E061332001F0F5
:10565000F9F840F20221342001F0F4F8022135205B
:1056600001F0F0F841F60F71362001F0EBF840F24E
:105670000771372001F0E6F80021382001F0E2F848
:105680000021392001F0DEF840F207713A2001F0E4
:10569000D9F800213B2001F0D5F807213C2001F08A
:1056A000D1F800213D2001F0CDF8322002F052F96E
:1056B0000121072001F0C6F8012101E0640000206B
:1056C000172001F0BFF8322002F044F94FF4BD5129
:1056D000102001F0B7F840F21721112001F0B2F8C4
:1056E0004FF48F71122001F0ADF84FF4706100E0BB
:1056F00098E0132001F0A6F800212A2001F0A2F87A
:105700000A21292001F09EF84FF49F71122001F028
:1057100099F80021502001F095F8EF21512001F077
:1057200091F80021522001F08DF840F23F115320F2
:1057300001F088F84FF41C51602001F083F801213A
:10574000612001F07FF800216A2001F07BF8002140
:10575000802001F077F80021812001F073F800210A
:10576000822001F06FF80021832001F06BF8002106
:10577000842001F067F80021852001F063F81321EF
:10578000902001F05FF84FF44071922001F05AF838
:105790000521932001F056F80021952001F052F8E0
:1057A0000021972001F04EF80021982001F04AF8DE
:1057B0004FF48071012001F045F84FF4E0610220C0
:1057C00001F040F841F23801032001F03BF80021DC
:1057D000042001F037F800210C2001F033F80021FB
:1057E0000F2001F02FF80021202001F02BF80021DC
:1057F000212001F027F82121072001F023F81420AF
:1058000002F0A8F86121072001F01CF8142002F032
:10581000A1F840F27311072001F014F8142002F0EF
:1058200099F895E4FE4880884BF2055188427CD176
:105830000021084601F006F80021084601F002F8B0
:105840000021084600F0FEFF0021084600F0FAFFA4
:105850000121A42000F0F6FF142002F07BF84FF4A1
:105860001C51602000F0EEFF40F20221082000F001
:10587000E9FF4FF40571302000F0E4FF43F21571A9
:10588000312000F0DFFF40F20461322000F0DAFF47
:1058900040F61661332000F0D5FF42F2112134208A
:1058A00000F0D0FF4FF4A851352000F0CBFF48F2B4
:1058B0000751362000F0C6FF41F20741372000F0C3
:1058C000C1FF41F20341382000F0BCFF2021392004
:1058D00000F0B8FF1A21902000F0B4FF0021102042
:1058E00000F0B0FF0721112000F0ACFF00211220D2
:1058F00000F0A8FF0021132000F0A4FF142002F004
:1059000029F84FF4E661102000F09CFF40F23711B7
:10591000112000F097FF142002F01CF84FF4DC7106
:10592000122000F08FFF142000E085E002F012F852
:105930004FF47061132000F085FF80212A2000F0D1
:1059400081FF4821292000F07DFF142002F002F899
:105950004FF48071012000F075FF4FF4E0610220E8
:1059600000F070FF41F23801032000F06BFF40F2BD
:105970000221082000F066FF00210A2000F062FFEB
:1059800000210C2000F05EFF00210D2000F05AFFE6
:1059900030210E2000F056FF0021502000F052FF71
:1059A000EF21512000F04EFF0021522000F04AFF6D
:1059B00040F23F11532000F045FF4FF41C5160208E
:1059C00000F040FF0121612000F03CFF00216A202F
:1059D00000F038FF1121902000F034FF4FF4C06137
:1059E000922000F02FFF40F20241932000F02AFFA6
:1059F0000221942000F026FF142001F0ABFF0121CA
:105A0000072000F01FFF142001F0A4FF61210720F0
:105A100000F018FF40F27311072000F013FF00217F
:105A2000202000F00FFF0021212000F00BFF222199
:105A3000002000F007FF11E3794880884CF20551FF
:105A400088427CD10021084600F0FCFE0021084677
:105A500000F0F8FE142001F07DFF0021084600F060
:105A6000F1FE0021084600F0EDFE0021084600F09E
:105A7000E9FE0021084600F0E5FE0121A42000F027
:105A8000E1FE142001F066FF4FF41C51602000F08D
:105A9000D9FE40F60601082000F0D4FE40F2037162
:105AA000302000F0CFFE0121312000F0CBFE042198
:105AB000322000F0C7FE4FF48171332000F0C2FEA7
:105AC0004FF44071342000F0BDFE40F20311352048
:105AD00000F0B8FE1F21362000F0B4FE40F2037142
